:020000040800F2
:1000000000000220C5500008C9960008719600083B
:1000100075960008799600087D960008000000009B
:10002000000000000000000000000000CD96000865
:10003000D196000800000000D5960008DD96000863
:100040008196000885960008951001088996000899
:100050008D960008919600081D92000825920008D0
:100060002D920008359200083D9200089510010875
:1000700095100108951001089510010895100108C8
:1000800095100108951001089510010895100108B8
:100090009510010895100108A196000845920008E6
:1000A00095100108295F00089510010895100108B6
:1000B000315F0008951001082DD6000839D60008D8
:1000C00045D6000851D60008959600089996000874
:1000D00099CE0008B1CE0008B9960008BD96000878
:1000E0005D9200089D960008951001089510010882
:1000F00061980008CD97000895100108A5960008A2
:10010000A996000895100108B596000895100108F9
:1001100095100108C1960008C596000895100108C1
:100120009510010895100108951001089510010817
:0C013000AD960008B1960008951001087B
:1001400001F0FF01102A2BDB10F0070F08D010F888
:10015000013B013A8B422DD010F0070F42B3F6D18C
:10016000F0B441EA012141EA014122F007047FF0A5
:1001700000070023F0E80256083C85EA010586EAFC
:10018000010685FA47F5A3FA87F586FA47F6A5FA38
:1001900087F68EB9EED1F0BC01F0FF0102F0070244
:1001A00032B110F8013B013A83EA010313B1F8D1EF
:1001B0000020704701387047002D06BF35460338D0
:1001C000073815F0010F07D1013015F4807F02BF09
:1001D000013015F4C03F0130F0BC0138704700BF5A
:1001E00010B5054C237833B9044B13B10448AFF371
:1001F00000800123237010BDD80200200000000001
:10020000941B010808B5034B1BB103490348AFF326
:10021000008008BD00000000DC020020941B0108E3
:10022000002815D0006041608260C36004614561B0
:100230008661C761444604624C4644625446846207
:100240005C46C462644604636E46466374468463D7
:10025000002906D0C46B043C043925680D60B44203
:10026000F9D1946BA646566BB546002B06D0D46BDD
:10027000043C043B1D682560B442F9D1146BA446CC
:10028000D46AA346946AA246546AA146146AA04658
:10029000D769966955691469D3685168106892687E
:1002A0007047006041608260C3600461456186619F
:1002B000C761444604624C464462544684625C46CC
:1002C000C462644604636E46466374468463C46BCA
:1002D000043C043925680D60B442F9D1C7698669C8
:1002E000456904697047006041608260C3600461D1
:1002F00045618661C761444604624C464462544687
:1003000084625C46C462644604636C46446374461B
:10031000846304697047846BA646446BA546046BEE
:10032000A446C46AA346846AA246446AA146046AF3
:10033000A046C769866945690469C3688268006820
:100340004168704781F0004102E000BF83F0004344
:1003500030B54FEA41044FEA430594EA050F08BF60
:1003600090EA020F1FBF54EA000C55EA020C7FEA24
:10037000645C7FEA655C00F0E2804FEA5454D4EBA1
:100380005555B8BF6D420CDD2C4480EA020281EA6B
:10039000030382EA000083EA010180EA020281EAA3
:1003A0000303362D88BF30BD11F0004F4FEA0131F5
:1003B0004FF4801C4CEA113102D0404261EB410104
:1003C00013F0004F4FEA03334CEA133302D052428A
:1003D00063EB430394EA050F00F0A780A4F1010446
:1003E000D5F1200E0DDB02FA0EFC22FA05F2801880
:1003F00041F1000103FA0EF2801843FA05F3594166
:100400000EE0A5F120050EF1200E012A03FA0EFCE4
:1004100028BF4CF0020C43FA05F3C01851EBE3710E
:1004200001F0004507D54FF0000EDCF1000C7EEB2B
:1004300000006EEB0101B1F5801F1BD3B1F5001F69
:100440000CD349085FEA30004FEA3C0C04F1010488
:100450004FEA445212F5800F80F09A80BCF1004FB1
:1004600008BF5FEA500C50F1000041EB045141EA33
:10047000050130BD5FEA4C0C404141EB0101013CFC
:1004800028BFB1F5801FE9D291F0000F04BF0146EB
:100490000020B1FA81F308BF2033A3F10B03B3F1BD
:1004A00020020CDA0C3208DD02F1140CC2F10C024D
:1004B00001FA0CF021FA02F10CE002F11402D8BFAB
:1004C000C2F1200C01FA02F120FA0CFCDCBF41EA77
:1004D0000C019040E41AA2BF01EB0451294330BD46
:1004E0006FEA04041F3C1CDA0C340EDC04F1140423
:1004F000C4F1200220FA04F001FA02F340EA0300FA
:1005000021FA04F345EA030130BDC4F10C04C4F13F
:10051000200220FA02F001FA04F340EA030029461F
:1005200030BD21FA04F0294630BD94F0000F83F469
:10053000801306BF81F480110134013D4EE77FEA4C
:10054000645C18BF7FEA655C29D094EA050F08BF98
:1005500090EA020F05D054EA000C04BF1946104679
:1005600030BD91EA030F1EBF0021002030BD5FEABD
:10057000545C05D14000494128BF41F0004130BDE5
:1005800014F580043CBF01F5801130BD01F0004539
:1005900045F0FE4141F470014FF0000030BD7FEAAC
:1005A000645C1ABF194610467FEA655C1CBF0B46A7
:1005B000024650EA013406BF52EA033591EA030FBE
:1005C00041F4002130BD00BF90F0000F04BF0021B6
:1005D000704730B54FF4806404F132044FF00005E9
:1005E0004FF0000150E700BF90F0000F04BF002162
:1005F000704730B54FF4806404F1320410F00045C8
:1006000048BF40424FF000013EE700BF42004FEAC2
:10061000E2014FEA31014FEA02701FBF12F07F433F
:1006200093F07F4F81F06051704732F07F4208BFF6
:10063000704793F07F4F04BF41F40021704730B5FD
:100640004FF4607401F0004521F000411CE700BF49
:1006500050EA010208BF704730B54FF000050AE0CC
:1006600050EA010208BF704730B511F0004502D5CD
:10067000404261EB41014FF4806404F132045FEACF
:10068000915C3FF4D8AE4FF003025FEADC0C18BF78
:1006900003325FEADC0C18BF033202EBDC02C2F16A
:1006A000200300FA03FC20FA02F001FA03FE40EAFC
:1006B0000E0021FA02F11444BDE600BF70B54FF000
:1006C000FF0C4CF4E06C1CEA11541DBF1CEA1355DE
:1006D00094EA0C0F95EA0C0F00F0DEF82C4481EA46
:1006E000030621EA4C5123EA4C5350EA013518BF66
:1006F00052EA033541F4801143F4801338D0A0FB53
:1007000002CE4FF00005E1FB02E506F00042E0FBFF
:1007100003E54FF00006E1FB03569CF0000F18BF05
:100720004EF0010EA4F1FF04B6F5007F64F54074AD
:1007300004D25FEA4E0E6D4146EB060642EAC62140
:1007400041EA55514FEAC52040EA5E504FEACE2EAD
:10075000B4F1FD0C88BFBCF5E06F1ED8BEF1004FB0
:1007600008BF5FEA500E50F1000041EB045170BD2C
:1007700006F0004646EA010140EA020081EA030170
:10078000B4EB5C04C2BFD4EB0C0541EA045170BD6C
:1007900041F480114FF0000E013C00F3AB8014F1E6
:1007A000360FDEBF002001F0004170BDC4F100042F
:1007B000203C35DA0C341BDC04F11404C4F12005B0
:1007C00000FA05F320FA04F001FA05F240EA02000B
:1007D00001F0004221F0004110EBD37021FA04F641
:1007E00042EB06015EEA430E08BF20EAD37070BDFB
:1007F000C4F10C04C4F1200500FA04F320FA05F05A
:1008000001FA04F240EA020001F0004110EBD3705B
:1008100041F100015EEA430E08BF20EAD37070BDCB
:10082000C4F1200500FA05F24EEA020E20FA04F3A4
:1008300001FA05F243EA020321FA04F001F0004153
:1008400021FA04F220EA020000EBD3705EEA430EC4
:1008500008BF20EAD37070BD94F0000F0FD101F0F3
:100860000046400041EB010111F4801F08BF013C2C
:10087000F7D041EA060195F0000F18BF704703F06A
:100880000046520043EB030313F4801F08BF013DF1
:10089000F7D043EA0603704794EA0C0F0CEA1355AD
:1008A00018BF95EA0C0F0CD050EA410618BF52EA67
:1008B0004306D1D181EA030101F000414FF000006D
:1008C00070BD50EA410606BF1046194652EA43067B
:1008D00019D094EA0C0F02D150EA013613D195EAEF
:1008E0000C0F05D152EA03361CBF104619460AD137
:1008F00081EA030101F0004141F0FE4141F4700141
:100900004FF0000070BD41F0FE4141F4780170BD30
:1009100070B54FF0FF0C4CF4E06C1CEA11541DBF95
:100920001CEA135594EA0C0F95EA0C0F00F0A7F897
:10093000A4EB050481EA030E52EA03354FEA0131C4
:1009400000F088804FEA03334FF0805545EA1313D7
:1009500043EA12634FEA022245EA111545EA10659F
:100960004FEA00260EF000419D4208BF964244F136
:10097000FD0404F5407402D25B084FEA3202B61A55
:1009800065EB03055B084FEA32024FF480104FF429
:10099000002CB6EB020E75EB030E22BFB61A75469D
:1009A00040EA0C005B084FEA3202B6EB020E75EB30
:1009B000030E22BFB61A754640EA5C005B084FEA98
:1009C0003202B6EB020E75EB030E22BFB61A754665
:1009D00040EA9C005B084FEA3202B6EB020E75EB70
:1009E000030E22BFB61A754640EADC0055EA060E31
:1009F00018D04FEA051545EA16754FEA06164FEA74
:100A0000C30343EA52734FEAC2025FEA1C1CC0D11F
:100A100011F4801F0BD141EA00014FF000004FF0AC
:100A2000004CB6E711F4801F04BF01430020B4F16D
:100A3000FD0C88BFBCF5E06F3FF6AFAEB5EB030C25
:100A400004BFB6EB020C5FEA500C50F1000041EB22
:100A5000045170BD0EF0004E4EEA113114EB5C04EF
:100A6000C2BFD4EB0C0541EA045170BD41F48011C2
:100A70004FF0000E013C90E645EA060E8DE60CEACA
:100A8000135594EA0C0F08BF95EA0C0F3FF43BAFE7
:100A900094EA0C0F0AD150EA01347FF434AF95EA9E
:100AA0000C0F7FF425AF104619462CE795EA0C0F82
:100AB00006D152EA03353FF4FDAE1046194622E74F
:100AC00050EA410618BF52EA43067FF4C5AE50EA29
:100AD00041047FF40DAF52EA43057FF4EBAE12E719
:100AE0004FF0FF3C06E000BF4FF0010C02E000BFFA
:100AF0004FF0010C4DF804CD4FEA410C7FEA6C5CDD
:100B00004FEA430C18BF7FEA6C5C1BD001B050EA7F
:100B1000410C0CBF52EA430C91EA030F02BF90EA6A
:100B2000020F0020704710F1000F91EA030F58BF29
:100B3000994208BF90422CBFD8176FEAE37040F08B
:100B4000010070474FEA410C7FEA6C5C02D150EA29
:100B5000013C07D14FEA430C7FEA6C5CD6D152EAE4
:100B6000033CD3D05DF8040B704700BF84461046A9
:100B700062468C461946634600E000BF01B5FFF7A8
:100B8000B7FF002848BF10F1000F01BD4DF808ED78
:100B9000FFF7F4FF0CBF012000205DF808FB00BF49
:100BA0004DF808EDFFF7EAFF34BF012000205DF8A3
:100BB00008FB00BF4DF808EDFFF7E0FF94BF0120F0
:100BC00000205DF808FB00BF4DF808EDFFF7CEFFF1
:100BD00094BF012000205DF808FB00BF4DF808ED30
:100BE000FFF7C4FF34BF012000205DF808FB00BF01
:100BF0004FEA410C7FEA6C5C02D150EA013C0AD119
:100C00004FEA430C7FEA6C5C02D152EA033C02D10A
:100C10004FF0000070474FF0010070474FEA41026B
:100C200012F5001215D211D56FF47873B3EB62523E
:100C300012D94FEAC12343F0004343EA505311F065
:100C4000004F23FA02F018BF404270474FF00000F7
:100C5000704750EA013005D111F0004008BF6FF035
:100C6000004070474FF00000704700BF53B94AB9C9
:100C7000002908BF00281CBF4FF0FF314FF0FF30A4
:100C800000F074B9ADF1080C6DE904CE00F006F87F
:100C9000DDF804E0DDE9022304B070472DE9F047F8
:100CA000089D04468E46002B4DD18A42944669D950
:100CB000B2FA82F252B101FA02F3C2F1200120FA33
:100CC00001F10CFA02FC41EA030E94404FEA1C4881
:100CD000210CBEFBF8F61FFA8CF708FB16E341EA7D
:100CE000034306FB07F199420AD91CEB030306F103
:100CF000FF3080F01F81994240F21C81023E634424
:100D00005B1AA4B2B3FBF8F008FB103344EA0344C7
:100D100000FB07F7A7420AD91CEB040400F1FF33DC
:100D200080F00A81A74240F207816444023840EA19
:100D30000640E41B00261DB1D4400023C5E9004352
:100D40003146BDE8F0878B4209D9002D00F0EF80D5
:100D50000026C5E9000130463146BDE8F087B3FA08
:100D600083F6002E4AD18B4202D3824200F2F980F0
:100D7000841A61EB030301209E46002DE0D0C5E9F3
:100D8000004EDDE702B9FFDEB2FA82F2002A40F03F
:100D90009280A1EB0C014FEA1C471FFA8CFE012642
:100DA000200CB1FBF7F307FB131140EA01410EFBE6
:100DB00003F0884208D91CEB010103F1FF3802D28D
:100DC000884200F2CB804346091AA4B2B1FBF7F087
:100DD00007FB101144EA01440EFB00FEA64508D9AA
:100DE0001CEB040400F1FF3102D2A64500F2BB80E7
:100DF0000846A4EB0E0440EA03409CE7C6F1200736
:100E0000B34022FA07FC4CEA030C20FA07F401FA7B
:100E100006F31C43F9404FEA1C4900FA06F3B1FB04
:100E2000F9F8200C1FFA8CFE09FB181140EA014169
:100E300008FB0EF0884202FA06F20BD91CEB010106
:100E400008F1FF3A80F08880884240F28580A8F15E
:100E500002086144091AA4B2B1FBF9F009FB1011B0
:100E600044EA014100FB0EFE8E4508D91CEB01014E
:100E700000F1FF346CD28E456AD90238614440EAF1
:100E80000840A0FB0294A1EB0E01A142C846A64671
:100E900056D353D05DB1B3EB080261EB0E0101FAFA
:100EA00007F722FA06F3F1401F43C5E90071002657
:100EB0003146BDE8F087C2F12003D8400CFA02FCAD
:100EC00021FA03F3914001434FEA1C471FFA8CFEBD
:100ED000B3FBF7F007FB10360B0C43EA064300FBAD
:100EE0000EF69E4204FA02F408D91CEB030300F14B
:100EF000FF382FD29E422DD9023863449B1B89B202
:100F0000B3FBF7F607FB163341EA034106FB0EF38A
:100F10008B4208D91CEB010106F1FF3816D28B4237
:100F200014D9023E6144C91A46EA004638E72E4603
:100F3000284605E70646E3E61846F8E64B45A9D2FB
:100F4000B9EB020864EB0C0E0138A3E74646EAE76A
:100F5000204694E74046D1E7D0467BE7023B614418
:100F600032E7304609E76444023842E7704700BF81
:100F7000034613F8012B002AFBD1181A01387047D9
:100F80002DE9F04F2DED048B57EC106B93B0456AB3
:100F9000DDF88080069110EE10AA044609920C93A9
:100FA000BB4675B9102002F021F90246606220B9F3
:100FB000A74BEA21A7480FF0ABFFC0E90155056038
:100FC000C560636A196851B15A684A600123934049
:100FD0008B6020460FF03AFB636A00221A603B1ECA
:100FE000AABF002323F0004BC8F800309A4BBCBFC7
:100FF0000122C8F8002033EA0B031BD10C9A42F2FD
:101000000F731360CBF31303334300F09285219BDE
:1010100063B9924B22E0924B01930833219A1360FB
:10102000019813B0BDEC048BBDE8F08F8B4B01939E
:101030000333F3E70022002350465946FFF7A6FD8D
:101040004BEC19AB804658B10C9A01231360219BDD
:10105000002B00F06B8583481860431E0193DFE787
:101060004BEC10AB10AA11A920460FF06BFDCBF38F
:101070000A5508EE100A002D00F0848019EE903A0F
:10108000C3F3130343F07F57564647F44017A5F2C6
:10109000FF35CDF83880744B002230463946FFF7D3
:1010A00055F965A3D3E90023FFF708FB64A3D3E94F
:1010B0000023FFF74DF9064628460F46FFF794FA3E
:1010C00061A3D3E90023FFF7F9FA02460B46304645
:1010D0003946FFF73DF906460F46FFF79FFD002210
:1010E0000090002330463946FFF75AFD50B1009872
:1010F000FFF77AFA32463B46FFF748FD10B9009BEE
:10110000013B0093009B162B5AD8009A574B03EBD8
:10111000C203D3E9002351EC190BFFF741FD00286E
:1011200050D0009B013B009300230B93109B5D1B51
:101130006B1E059345BFC5F10103049300230023F3
:101140004CBF05930493009B002B3DDB059B009A4D
:101150000A921344059300230793069B092B00F280
:101160008980052BC4BF043B0693069BA3F10203B1
:10117000CCBF00250125032B00F28780DFE803F0B8
:101180002D3A3859DDE910531D4405F23243202B26
:10119000C1BFC3F1400305F212400BFA03F326FA74
:1011A00000F0DABFC3F1200306FA03F01843FFF79B
:1011B0000BFA01230646A1F1F877013D0E936AE789
:1011C0000123B2E70B90B1E7049B009A9B1A0493AA
:1011D0005342079300230A93BFE700230893099B18
:1011E000002B55DC0123CDE902331A4609920CE0AD
:1011F0000123F3E70023099A0893009B1344029309
:101200000133012B0393B8BF0123606A00224260BF
:10121000042202F114069E4241683DD920460FF097
:10122000D5F9019000283BD1114B02464FF4D571FE
:10123000C0E60123DFE700BF61436F63A787D23FAA
:10124000B3C8608B288AC63FFB799F501344D33FB5
:10125000262F01083D2F01080000F07F222F0108F2
:10126000192F0108F52D01080000F83F381C01086E
:10127000BA2F010801250023069308954FF0FF338C
:10128000CDE9023300221223B0E701230893F5E7EA
:10129000099BCDE90233B8E7013141605200B8E75C
:1012A000636A019A1A60039B0E2B00F29D80002D49
:1012B00000F09A80009B002B32DDB74A03F00F0349
:1012C00002EBC303D3E90089009BD8054FEA23173B
:1012D00016D5B24B51EC190BD3E90823FFF718FBD5
:1012E00007F00F0782468B460325AC4E57B942469E
:1012F0004B4650465946FFF70BFB82468B4628E08B
:101300000225F2E7F90708D540464946D6E9002309
:10131000FFF7D4F90135804689467F100836E5E7A6
:1013200000F09B80009B9D4F5E429B4B06F00F029E
:1013300003EBC203D3E9002351EC190BFFF7BEF90D
:10134000361182468B4600230225002E7AD1002BCF
:10135000D3D10B9B002B00F08280914B0022504692
:101360005946FFF71DFC002879D0039B002B76D04F
:10137000029B002B36DD009B504659465F1E002223
:10138000884BFFF79BF9029E82468B460135284623
:10139000FFF72AF952465B46FFF790F9824B00228D
:1013A000FEF7D6FFD046D9468246A1F1507B002EEB
:1013B00058D17E4B002240464946FEF7C7FF5246B1
:1013C0005B4680468946FFF709FC002840F095827D
:1013D00052460BF1004340464946FFF7E1FB002827
:1013E00040F089825BEC19AB119B002BC0F2488165
:1013F000009A0E2A00F34481674B03EBC203D3E942
:101400000089099B002B80F2D580039B002B00F301
:10141000D18040F06F82654B002240464946FFF77D
:101420004DF952465B46FFF7CFFB039E3746002837
:1014300040F04582019D312305F8013B009B0133BB
:10144000009340E2F20705D5D7E90023FFF736F90C
:10145000013501237610083777E7022579E7009FE9
:10146000039E94E701994C4B31440D91089903EB8D
:10147000C60353E90223002943D04D490020FFF75A
:1014800047FA52465B46FEF761FF019D82468B4656
:1014900049464046FFF7C2FB0646FFF7A5F802465D
:1014A0000B4640464946FEF751FF303605F8016BC2
:1014B00052465B4680468946FFF772FB002863D19F
:1014C00042464B4636490020FEF740FF52465B46F7
:1014D000FFF766FB002840F0B5800D9B9D4281D050
:1014E000304B002250465946FFF7E8F82D4B824614
:1014F0008B46404649460022FFF7E0F88046894681
:10150000C6E750465946FFF7D9F80D9B019D0F934A
:1015100082468B4649464046FFF780FB0646FFF76A
:1015200063F8303602460B4640464946FEF70EFF4A
:1015300005F8016B0D9B9D42804689464FF00002E5
:1015400024D11B4B50465946FEF702FF02460B467C
:1015500040464946FFF742FB002873D152465B469E
:1015600013490020FEF7F2FE02460B46404649466C
:10157000FFF716FB00283FF435AF0F9D6B1E0F934E
:1015800015F8013C302BF8D0009749E0054BFFF7E8
:1015900095F880468946BDE7381C0108101C0108F3
:1015A0000000F03F0000244000001C4000001440F8
:1015B0000000E03F019D56465F4642464B4630469E
:1015C0003946FFF7A5F9FFF729FB8246FFF70CF82C
:1015D00042464B46FFF772F802460B463046394604
:1015E0000AF13006FEF7B2FE05F8016B019E039F7B
:1015F000AE1BB74202460B4635D1FEF7A9FE424666
:101600004B4606460F46FFF7E9FAD0B942464B462D
:1016100030463946FFF7BAFA10B11AF0010F10D16F
:10162000204618EE101A0FF011F8002300982B70C6
:101630000C9B01301860219B002B3FF4F1AC1D6026
:10164000EEE4009F2B461D4613F8012D392A06D1E2
:10165000019A9A42F7D10199302201370A701A781B
:1016600001321A7090E7A64B0022FFF727F80022FC
:10167000002306460F46FFF789FA00289DD0CFE7E2
:10168000089A002A00F0D780069A012A00F3BA804F
:101690000E9A002A00F0B28003F23343079E049DA5
:1016A000049A1A440492059A01211A44204605928C
:1016B0000FF034F80746002D0CDD059B002B09DDEB
:1016C000AB42049AA8BF2B46D21A0492059AED1A8F
:1016D000D31A0593079B1BB3089B002B00F0AF8028
:1016E000002E13DD3946324620460FF0D7F818EEAB
:1016F000102A0146074620460FF026F818EE101A69
:10170000804620460EF0A2FF08EE108A079B9A1B27
:1017100006D018EE101A20460FF0C0F808EE100A96
:10172000012120460EF0FAFF0A9B002B064640F3EB
:1017300088801A46014620460FF0B0F8069B012B20
:10174000064640F381804FF00008336906EB8303BF
:10175000186910F01AF9C0F12000059B184410F028
:101760001F0000F09280C0F12003042B40F38A8018
:10177000C0F11C00049B03440493059B03440544EF
:101780000593049B002B07DD18EE101A1A4620461D
:101790000FF0DEF808EE100A059B002B05DD314640
:1017A0001A4620460FF0D4F806460B9B002B6ED04D
:1017B00018EE100A314610F037F9002867DA009B5E
:1017C000013B18EE101A00930A22002320460EF067
:1017D0005FFF089B08EE100A002B00F0B181002388
:1017E00039460A2220460EF053FF029B002B074683
:1017F00000F38E80069B022B51DC89E0109BC3F125
:1018000036034BE7039B5E1E079BB342BFBF079B9C
:101810000796F21A0A9BB6BF9B189E1B0A93039B5E
:10182000B8BF0026002BB7BFDDE90323DDE9033590
:101830009D1A002334E7079E049D089F3BE7079A03
:1018400067E7069B012B18DCBAF1000F15D1CBF32B
:10185000130393B92BF000431B0D1B0583B1049BAD
:1018600001330493059B013305934FF001080A9B54
:10187000002B7FF46AAF01206FE74FF00008F6E716
:101880009846F4E73FF47DAF18461C3072E7039B9F
:10189000002B37DC069B022B34DD039B0293029B5B
:1018A0006BB93146052220460EF0F2FE014606468F
:1018B00018EE100A10F0B8F800283FF7BBAD099BEE
:1018C000019DDB4300934FF00008314620460EF0A7
:1018D000BDFE002F3FF4A4AEB8F1000F05D0B8450F
:1018E00003D0414620460EF0B1FE394620460EF0A8
:1018F000ADFE95E600263746E1E70097374699E5C5
:1019000000002440089B002B00F0CA80039B029338
:10191000002D05DD39462A4620460FF019F8074606
:10192000B8F1000F5BD0796820460EF04FFE0546F7
:1019300028B9874B024640F2EA21FFF73BBB3A69E0
:101940000232920007F10C010C300FF0CFFD0122A2
:10195000294620460EF0FCFF019B03F10109DDE959
:101960000123134405930AF00103B8460493074684
:10197000314618EE100A0FF020FF4146029000F1A8
:10198000300A18EE100A10F04FF83A46039031462C
:1019900020460FF04DF8C26809F1FF3B054602BB37
:1019A000014618EE100A10F03FF80246294620467C
:1019B00007920EF04BFEDDE9063243EA0201049B7A
:1019C0000B434D460FD1BAF1390F2AD0039B002BA0
:1019D00002DD029B03F1310A8BF800A075E738465F
:1019E000BAE70122E2E7039B002B04DB06990B43D5
:1019F00004990B4322D1002AEEDD18EE101A0122C1
:101A000020460EF0A5FF314608EE100A10F00CF843
:101A1000002803DCE0D11AF0010FDDD0BAF1390F54
:101A2000D7D139238BF800302B461D46013B15F8E2
:101A3000012C392A71D001321A7046E7002A07DDDD
:101A4000BAF1390FEDD00AF101038BF800303CE711
:101A5000059B09F801AC994547D018EE101A0023F0
:101A60000A2220460EF014FEB84508EE100A4FF088
:101A700000034FF00A024146204606D10EF008FE50
:101A80008046074609F1010972E70EF001FE39466A
:101A9000804600230A2220460EF0FAFD0746F1E7B1
:101AA000039B0293019D18EE100A31460FF085FE4C
:101AB00000F1300A019B05F801ABEA1A029B934240
:101AC00009DD18EE101A00230A2220460EF0E0FD70
:101AD00008EE100AE7E7029B002BC8BF1D46019BDA
:101AE000D8BF01251D444FF0000818EE101A01223E
:101AF00020460EF02DFF314608EE100A0FF094FF3D
:101B0000002891DC02D11AF0010F8DD12B461D4621
:101B100013F8012D302AFAD0D7E6019A9A4284D1DF
:101B2000009B0133009331231370CEE6094BFFF77E
:101B300095BA219B002B7FF46EAA074BFFF78EBA54
:101B4000029B002BAEDC069B022B3FF7A8AEA9E759
:101B5000BA2F0108F42D0108192F01080048704719
:101B600016FCFFFF704700BF704700BF004870477A
:101B700016FCFFFFC1600020704700BF007A70476D
:101B800008B56FF47D7001F0FBFB6FF47D7008BD4C
:101B900010B5044A026000230446C38000F08EFDA5
:101BA000204610BD081D010810B50446FFF7F0FFE0
:101BB000204608210FF074FA204610BD10B5054CE0
:101BC000204600F0AFF92046034A0449BDE8104022
:101BD0000FF061BAF802002000000020451E000846
:101BE0000FF05EBAFFF7FCBF08B1FFF7FBBF70470D
:101BF000704700BF10B5142104460FF051FA20467B
:101C000010BD00BF10B504464069044B236010B1FD
:101C100084210FF045FA204610BD00BF14240108AE
:101C200010B50446FFF7EEFF204624210FF038FAE6
:101C3000204610BD10B5034B03600446FFF7A8FF14
:101C4000204610BD281D010810B50446FFF7F2FF1D
:101C5000204610210FF024FA204610BD10B5054C87
:101C6000204600F029F9204600F078FB01F088F9C1
:101C7000002010BDF802002010B5034B036004469D
:101C8000FFF7D8FF204610BD4023010810B50446D9
:101C9000FFF7F2FF204664210FF002FA204610BD44
:101CA00010B5044600F20C60FFF7ACFF04F5BD6010
:101CB000FFF7A8FF04F2C450FFF7A4FF04F5B460D7
:101CC000FFF7A0FF04F27C50FFF79CFF04F5AB6028
:101CD000FFF798FF04F23450FFF794FF04F5A26079
:101CE000FFF790FF04F2EC40FFF78CFF04F59960DA
:101CF000FFF788FF04F2A440FFF784FF04F590602B
:101D0000FFF780FF04F25C40FFF77CFF04F587607B
:101D1000FFF778FF04F21440FFF774FF04F57C70BE
:101D2000FFF770FF04F57370FFF76CFF04F56A703E
:101D3000FFF768FF04F56170FFF764FF04F5587062
:101D4000FFF760FF04F54F70FFF75CFF04F5467086
:101D5000FFF758FF04F53D70FFF754FF04F53470AA
:101D6000FFF750FF04F52B70FFF74CFF04F52270CE
:101D7000FFF748FF04F51970FFF744FF04F51070F2
:101D8000FFF740FF04F50770FFF73CFF04F5FC7018
:101D9000FFF738FF04F5EA70FFF734FF04F5D87059
:101DA000FFF730FF04F5C670FFF72CFF04F5B470A1
:101DB000FFF728FF04F5A270FFF724FF04F59070E9
:101DC000FFF720FF04F1FC00FFF71CFF04F1D8002F
:101DD000FFF718FF04F1B400FFF714FF04F19000BF
:101DE000FFF710FF04F16C00FFF70CFF04F148004F
:101DF000FFF708FF04F12400FFF704FF2046FFF778
:101E000001FF204610BD00BF10B504460068A16860
:101E1000091AFFF7E9FE204610BD00BF10B50446C1
:101E2000FFF7F2FF204610BD10B5044B044640F802
:101E3000983BFFF7F3FF204610BD00BFB422010816
:101E4000FFF7BCBE144B10B50446036000F51560E7
:101E500004F092FE04F6A800FFF7E6FF04F5006028
:101E6000FFF7E2FF04F5DF6005F01EFD04F1C80096
:101E7000FFF716FF04F1A00002F06CFB04F1700004
:101E800002F018F804F10800FFF7F6FE2046FFF70D
:101E90007FFE204610BD00BF841D010810B504461A
:101EA000FFF7D0FF20464FF41E610FF0F9F82046EF
:101EB00010BD00BF704700BFC388DA0719D443F0D4
:101EC000010370B5C3800646A0300B4C00F076FECF
:101ED00004F1F00554F8043F184613B11B681B6861
:101EE0009847AC42F6D1F38843F480430020F38056
:101EF00070BD0248704700BFD80C002016FCFFFFE1
:101F0000084601F013B800BF00F06ABC10B5044ADF
:101F10000023C0E90023044600F094FB204610BDD6
:101F2000081D010870B5054684B00446FFF7EEFFB2
:101F3000244B45F8083B1C224FF08041284604F012
:101F40001BF801232946002204F1700001F0FEFF76
:101F500004F1A00002F068FB04F5DF6504F1C8009D
:101F600000F038F804F2044204F58561284605F0D3
:101F70006BFD04F56F7204F5787104F5006003F0F1
:101F800019FA04F2DC4204F5A06104F6A80003F09B
:101F900011FA00260C4B00930122CDE9016204F1F5
:101FA000EC0304F5547204F54B7104F5156004F06C
:101FB000FDFD064A064BE680204614601D6004B015
:101FC00070BD00BF841D0108809FD500D80C002083
:101FD0007416002010B5012300226421044604F089
:101FE0002BFA01231A46652104F1240004F024FA97
:101FF00001230222662104F1480004F01DFA0123A6
:102000000322672104F16C0004F016FA0123042274
:10201000682104F1900004F00FFA012305226921E0
:1020200004F1B40004F008FA012306226A2104F145
:10203000D80004F001FA012307226B2104F1FC000F
:1020400004F0FAF9012308226C2104F5907004F0E1
:10205000F3F9012309226D2104F5A27004F0ECF9D3
:1020600001230A226E2104F5B47004F0E5F903237C
:102070000B226F2104F5C67004F0DEF901230C2257
:10208000702104F5D87004F0D7F901230F227121D3
:1020900004F5EA7004F0D0F901231022722104F54E
:1020A000FC7004F0C9F901231122732104F50770B3
:1020B00004F0C2F901231222742104F5107004F017
:1020C000BBF901231422752104F5197004F0B4F949
:1020D00001231522762104F5227004F0ADF90123C5
:1020E0001622772104F52B7004F0A6F9012317229C
:1020F000782104F5347004F09FF901231822792126
:1021000004F53D7004F098F9012319227A2104F5B1
:10211000467004F091F901231A227B2104F54F70D7
:1021200004F08AF901231B227C2104F5587004F085
:1021300083F901231C227D2104F5617004F07CF9F0
:1021400001231D227E2104F56A7004F075F9012334
:102150001E227F2104F5737004F06EF901231F2203
:10216000802104F57C7004F067F90123202281218D
:1021700004F2144004F060F901232122822104F5C5
:10218000876004F059F901232222832104F25C4084
:1021900004F052F901232322842104F5906004F015
:1021A0004BF901232422852104F2A44004F044F9D0
:1021B00001232522862104F5996004F03DF90123CD
:1021C0002622872104F2EC4004F036F901232A226A
:1021D000882104F5A26004F02FF901232B22892124
:1021E00004F2345004F028F901232C228A2104F54A
:1021F000AB6004F021F901232D228B2104F27C50E5
:1022000004F01AF9012330228C2104F5B46004F0A3
:1022100013F9012331228D2104F2C45004F00CF98A
:10222000012344228E2104F5BD6004F005F9032347
:102230004FF6FF72002104F20C6004F0FDF8204616
:1022400010BD00BF024AD36843F40043D360704717
:10225000000400584FF0B04382B09A6C42F48052B0
:102260009A649B6C03F480530193019B02B0704706
:10227000081A704701607047704700BF0368013358
:1022800003607047B0F90200704700BF0430704728
:102290000FF0D7B808B50FF0F3F8B0FA80F04009A6
:1022A00008BD00BF704700BF38B50D46FFF7FAFF05
:1022B00004462846FFF7F6FF22680068101A18BF88
:1022C000012038BDFFF7D4BFB0FA80F04009704755
:1022D00070B5054682B008460C461646FFF7F4FF77
:1022E00008B1B44221D131462046FFF7EBFF0F2859
:1022F00001900CD828460FF099F8324621460FF08D
:10230000B4F8019928460FF097F802B070BD00228A
:1023100001A928460DF034FA014628460FF084F84A
:10232000019928460FF086F8E4E701480FF06AF8B3
:10233000A01D0108FFF7CCBFFFF7FCBF70B50C462E
:10234000064615460FF074F801463046FFF792FF37
:1023500062192146FFF7F0FF70BD00BF2DE9F0477D
:10236000A2B0FFF777FF00F5DF6500231A46009360
:102370004FF4E131284604F06DFE0FA806F0FEF898
:102380000FA805F0C3FFFFF75DFF6E4B6E4ED3F84D
:102390000090DFF8EC816D4F314609A802F030FA69
:1023A000002309AA294603A801F09CFA09A802F013
:1023B000C5F9039B1846FFF765FF021E6DDD184641
:1023C000FFF764FF014609A8FFF7B8FF09A80FF05F
:1023D00051F8034609A804930FF04EF805900AE05F
:1023E0000498FFF749FF044600780DF047FE20707F
:1023F00004A8FFF743FF05A904A8FFF755FF00282D
:10240000EED1414609A8FFF745FF002856D13946CD
:1024100009A8FFF73FFF00284DD14D4909A8FFF754
:1024200039FF00283DD14B4909A8FFF733FF08B316
:1024300005A802F003FB014670B19DF81420464840
:102440000DF05EFD0A200DF073FD09A8FFF720FFD7
:1024500003A802F073F99FE7D9F804203F48D3B2EC
:102460000093C2F30723C2F307420DF049FD0A208F
:102470000DF05EFD3A4909A8FFF70CFF002841D195
:10248000384909A8FFF706FF30BB374909A8FFF70D
:1024900001FFE8B909A8FFF7FBFE03A802F04EF917
:1024A0007AE702F003FB014630480DF029FD0A20CF
:1024B0000DF03EFDB7E705F061FCAEE702F0E8FA8B
:1024C00001462B480DF01CFD0A200DF031FD9EE762
:1024D00028480DF0B1FDDDE705A802F005FBD9F8AD
:1024E00014009DF81620D9F80C109DF81530CDE990
:1024F00000209DF8142020480DF002FD0A200DF068
:1025000017FDC2E70021084602F0AAFA01461B485F
:10251000DFF870A00DF0F4FC0A200DF009FD05A80D
:1025200002F08CFA9DF814200146044650460DF046
:10253000E7FC0A200DF0FCFC642005F01DFC002CDB
:10254000EDD19DE700000320D4200108FC1D010807
:10255000041E0108301E0108381E01086C1E010807
:10256000D01E01083C1F0108B01F01080C1E010805
:10257000D41D0108B81F0108441F0108D81E010816
:10258000CC1D0108001F010830B585B004AC04E97A
:102590000F00BDF80230012B12D0022B0ED1114CCE
:1025A00004F1F00554F8043F33B1DA8852041846B8
:1025B00002D51B689B689847AC42F3D105B030BD8B
:1025C000084C04F1F00554F8043F33B1DA88910463
:1025D000184602D51B685B689847AC42F3D105B03A
:1025E00030BD00BFD80C00202DE9F04182B0BDF80D
:1025F0002080CBB10F2906460D4617461C4602D156
:10260000B8F1C00F10D128200EF04CFD2346A9B21E
:10261000CDF80080BAB2044600F044FE336821468B
:102620005B683046984710B902B0BDE8F08120469B
:1026300000F050FE2821204602B0BDE8F0410EF027
:102640002FBD00BF70B5194C82B02246002302E0B6
:1026500001333C2B05D052F8041B0029F8D144F873
:102660002300134C2378DB070AD4124D2B683BB1AF
:10267000012310224FF47A70002101F031FC08B1DF
:1026800002B070BDC0260C4B2868009601221021B4
:10269000FFF7AAFF084B2868009602220F21FFF7D8
:1026A000A3FF237843F001032370E9E7DC0C00204B
:1026B00052180020081600208925000810B4084C84
:1026C0000023224602E001333C2B06D052F8041BC3
:1026D0008142F8D1002244F823205DF8044B704772
:1026E000DC0C002030B41C24002508E06BB904B1D8
:1026F00015B1303343550135043C231D09D021FA6F
:1027000004F303F00F03002AF0D0092BF1DD373377
:10271000F0E70023435530BC704700BF10B50446B6
:10272000FEF726FC01462046BDE8104000F01EB82A
:1027300010B586B072B1034601AC0A462046194670
:10274000FFF7D0FF0848FFF7E9FF2046FFF7E6FF55
:1027500006B010BD01AC214602F010F92046FFF78B
:10276000DDFF06B010BD00BFBC2001082DE9F0411F
:10277000194D2E687318B3F5006F0C4607460FD23B
:1027800005F104082246394608EB06000EF0AEFEBD
:1027900029680C442B1900221A712C60BDE8F081C5
:1027A000A846A6F5007648F8046B324605F5017197
:1027B00040460EF0A9FEC6F5006208EB06000021B7
:1027C0000EF0BCFE2E68A319B3F5006FDAD3BDE896
:1027D000F0410248FFF7A2BFD00D0020C020010841
:1027E000024B1B6803B11847704700BFCC0D002097
:1027F0002DE9F04782B006468846174605F0AEFA46
:10280000DFF8C8A0DFF8C890344601E0252B10D0CF
:10281000254614F8013B002BF8D1A91B3046FFF7E1
:10282000A5FFB8F1000F2ED102B0BDE8F04705F0CA
:1028300087BAA11B30460139FFF798FF237857F874
:10284000040B0190252B05F1020618D0583BDAB293
:10285000202A20D8202B1ED8DFE803F0211D1D1DC3
:102860001D1D1D1D1D1D1D30261D1D1D1D1D1D1D7C
:102870001D1D1D1D211D1D121D261D1D2B00504639
:10288000FFF74CFFC0E71048FFF748FF02B0BDE874
:10289000F04705F055BA4846FFF740FFB4E701227C
:1028A0001146FFF745FFAFE700221146FFF740FF53
:1028B000AAE701220021FFF73BFFA5E7012101A8BC
:1028C000FFF754FFA0E700BFE0200108D82001086F
:1028D000DC2001080FB400B583B004AA012152F82E
:1028E000040B0192FFF784FF03B05DF804EB04B022
:1028F000704700BF9BB110B58CB00446102092B257
:10290000009089B202A800F0CDFC236802A99B6860
:102910002046984702A800F0DDFC0CB010BD7047BF
:102920002DE9F04182B0BDF82080CBB10F290646D9
:102930000D4617461C4602D1B8F1C00F10D1282011
:102940000EF0B0FB2346A9B2CDF80080BAB204461F
:1029500000F0A8FC336821465B683046984710B900
:1029600002B0BDE8F081204600F0B4FC28212046EA
:1029700002B0BDE8F0410EF093BB00BF38B50D4684
:10298000044605F0EBF92B68656153B11A469B6963
:10299000002BFBD19461C4E90632BDE8384005F054
:1029A000CFB9C4E906332C60BDE8384005F0C8B99A
:1029B0004369BBB110B5044605F0D0F9E3696BB1CA
:1029C000A2699A61A3690BB1E269DA610023C4E9E3
:1029D00006336361BDE8104005F0B2B9D4E90532B1
:1029E0001A60EFE7704700BF2DE9F04184B004ACF6
:1029F00004E90F0011490C684FF47A72DDE9020115
:102A00000023FEF733F964B1DFF8348006460F4641
:102A10002546A469EB689E4277F1000304D2002C9E
:102A2000F6D104B0BDE8F0812846FFF7C1FF41466A
:102A30002846FFF7A3FF002CEAD1F2E7DC150020BF
:102A4000E41500202DE9F04FDFF8C08085B004AC1C
:102A500004E90F00D8F80030F3B1294BBDF800406D
:102A60001F68BDF802509FB1264E4FF0000940F29A
:102A7000FE3BBA465C45DAF80C30BF694FEA1341B9
:102A80009AB20B460BD0F2B194421CD0002FF0D179
:102A9000A4F2FE33012B28D805B0BDE8F08F40F238
:102AA000FF308242EFD1D9B9B9F1000FEED15046D3
:102AB000FFF77EFF31465046FFF760FF4FF00109F8
:102AC000002FD6D1E4E709B1AB42DFD15046FFF782
:102AD0006FFF31465046FFF751FF002FC9D1D7E7AE
:102AE000A942E1D0002FC4D1D2E7074BD8F80000AB
:102AF0002A46214605B0BDE8F04FFFF7FBBE00BFF8
:102B0000F4150020E4150020452A0008D8150020FF
:102B100038B505F023F9154B1C68C4B12046FFF702
:102B200047FF05F00DF9002323616362256805F076
:102B300065F90146284605F06DF905F00FF90C4BD3
:102B40001A6822621C6005F0FBF8204638BD282078
:102B50000EF0A8FA2822002104460EF0EFFC05F042
:102B600051F90023C4E90003A360DAE7EC15002063
:102B7000E815002038B50B4B1C682369DB0707D527
:102B8000094D286830B1626A4262002363620446DC
:102B9000204638BDFFF7BCFF28600028F3D120464F
:102BA00038BD00BFD4150020E0150020024B187876
:102BB00000F00100704700BF53180020F0B583B04B
:102BC0000246FFF7F3FF08B103B0F0BD204D214EE0
:102BD0002A600446FFF79CFF1F4B20491860FFF74F
:102BE000CDFEFFF795FF0768306005F007F9011F7C
:102BF000384605F00DF933681949186805F006F9EB
:102C00002868E8B1C026174B0096224640F2FF31F3
:102C1000FFF786FE134B28680096224640F2FE31ED
:102C2000FFF77EFE01230F2200214FF47A7001F09E
:102C300057F90D4B2868009601220F21FFF770FE0F
:102C40000A4A137843F00103137003B0F0BD00BFCC
:102C5000D8150020F0150020D4150020E415002020
:102C6000FD300008452A0008E92900085318002013
:102C7000F0B5144F3B6883B013B30446FFF796FFDB
:102C8000F0B10E46FFF776FF44EA0643C3600546FF
:102C9000FFF78EFE0C492846FFF770FEA4F2FE33C4
:102CA000012B02D8002003B0F0BDC022386800928A
:102CB000064B32462146FFF733FE002003B0F0BD3D
:102CC0000348F0E7D8150020F4150020452A000835
:102CD00016FCFFFF2DE9F04128B30E4619B3174645
:102CE00098460546FFF714FF0446E0B132463B46DE
:102CF0002946006805F098F8256805F07FF8011F5F
:102D0000284605F085F80A4B0A492068B8F1000FFB
:102D100018BF194605F07AF820460749FFF72EFE3E
:102D20002046BDE8F08100242046BDE8F08100BFC8
:102D3000E130000835300008E415002070B5044685
:102D4000FFF734FF40B1154620460A4601232946C5
:102D5000BDE87040FFF7BEBF70BD00BFF8B50546C7
:102D6000006805F059F8044605F058F8D5E9011255
:102D7000231A521A93420CD90C4E2033376823F091
:102D80001F0439B9204600F031FA0444C5E90104B2
:102D90003760F8BD084600F057FA204600F026FAE2
:102DA0000444C5E901043760F3E700BFD4150020EF
:102DB000024B1868B0FA80F040097047E415002013
:102DC00010B5104C23789A0784B004D5FFF7F0FFB4
:102DD00070B904B010BD43F002002070012302223C
:102DE0000F21684601F072FCFFF7E2FF0028F0D0E7
:102DF000237823F00203237004B0BDE8104004F0F0
:102E0000B9BF00BF531800202DE9F041FFF7CEFEF7
:102E1000002843D03F4D2C682269D1071FD43E4E75
:102E20003368002B45D06169B14261D02B603B4FC4
:102E30003968994240D09C4230D08C4230D0384BD7
:102E400062699A422CD02046FFF788FF2A68A16861
:102E5000936820681268BDE8F041FDF7E1B9314E92
:102E60002068336842F0020222611A691C6842F04D
:102E700004021A6104F0D6FF0146204604F0CAFF9E
:102E80003068FFF76BFF336899681868FDF709FA37
:102E90002B681A6900219207316035D4BDE8F081B2
:102EA0002A68002193681268BDE8F0410846FDF7E2
:102EB000B7B91A4F3B682B60130720D52C60FFF77A
:102EC0007FFF3368002BFAD0A3422B60E6D039682D
:102ED0008B42B2D10E6804F091FF011F304604F01E
:102EE00097FF3B681049186804F090FF3968A4E721
:102EF000A169002908BF194629600B4697E72B688E
:102F00009C42CBD03968E5E7BDE8F0411868FDF791
:102F100002BA00BFD4150020E4150020F0150020EF
:102F2000EC150020E0150020FD30000838B50446FF
:102F3000FFF73CFE88B1FFF71DFE054600F0BCFF21
:102F40000444EC602846FFF733FD28460549FFF7A7
:102F500015FDBDE83840FFF757BF2046BDE83840B3
:102F600004F00ABFDC15002010B5FFF781FE04460F
:102F700008B1204610BDFFF747FF204610BD00BF37
:102F800038B5FFF713FE00B938BD274D274C286828
:102F9000FFF70EFD21462868FFF7F0FC24684CB1CE
:102FA000A369002223B11C460132A369002BFAD188
:102FB000032A1DDC2B6800221A611C6804F01EFF26
:102FC0000146204604F026FF04F0C8FE184A29688E
:102FD00013688B4218D02BB11A6A91421CD0134649
:102FE000002BF9D104F0ACFEBDE83840FFF70CBF70
:102FF000E2692068936100F027F9606800F024F925
:10300000204600F021F9D5E71B6A136004F098FE12
:10301000BDE83840FFF7F8BE0A6A1A6204F090FE75
:10302000BDE83840FFF7F0BED4150020EC150020B5
:10303000E815002010B50C468047A047BDE81040B9
:10304000FFF79EBF08B5FFF7B1FD00B908BDBDE8A9
:103050000840FFF795BF00BF002838D02DE9F041A8
:103060000446FFF7A3FD80B31A4E33681A6952076E
:103070000F4601D15D6A3DB1174A39462046FFF738
:103080005DFE0020BDE8F0811868FDF72CF932687C
:10309000136913F0020813D143F00103136138469A
:1030A000A04732681069C2F8248020F0010110F0B6
:1030B00004001161E6D03846FFF7C4FF4046E1E75F
:1030C00023F0030313612846DCE70448DAE76FF4D2
:1030D0007A707047D41500204530000816FCFFFFB9
:1030E00038B51446034610460D4698472046A84773
:1030F0002046BDE83840FFF7A5BF00BF08B5FFF781
:103100005FFEFFF781FEFAE7F8B50C4E04460D4668
:10311000377804F023FE0A4A2B1B42F837409B08FD
:1031200002EBC70243F0004355602360337801335C
:10313000337004F005FE0020F8BD00BF55180020D4
:10314000F8150020830770B50D4644D100B970BD55
:10315000860804F003FED5E90040751CA04206D99C
:103160002168002907DB04EB8104A042F8D804F0B1
:10317000E7FD002070BD21F000434FEA810C54F8B8
:103180002320002A04EB81010EDB0FE022F0004235
:10319000134443F00042226054F82320002A04EB39
:1031A00083014FEA830C01DA8842EFD89D4201D9AE
:1031B0006444D3E7A042DAD902369E4203D204EB3C
:1031C0008606B0420AD8236823F00043236004F047
:1031D000B7FD201D70BD8008461CBAE75B1B43F09D
:1031E000004346F8043C2560F1E700BF38B50446CB
:1031F00040B1104D2B783BB120460F49FFF7A2FF9D
:10320000044688B1204638BD0C490D4A08680D496E
:103210001370FFF779FF0123204607492B70FFF752
:1032200091FF04460028EDD1142000F0A9F82046B3
:1032300038BD00BF54180020F815002010000020F1
:103240005518002000F80120B0B10F4B1A688242D7
:1032500010B5044602D25B68834204D8BDE8104032
:103260001E2000F08DB850F8043C002B05DD43F023
:10327000004344F8043C10BD70471E2000F080F865
:1032800054F8043CF3E700BFF815002008B50846E1
:10329000FFF7ACFF08BD00BF08B50846FFF7D4FF35
:1032A00008BD00BF2DE9F041044610300F46BDF8BF
:1032B000188016461D4601F0E9F90021C4E90251C3
:1032C000C4E9081127806680A4F804802046BDE880
:1032D000F08100BF83889B0710B5044604D5806841
:1032E00010B118210DF0DCFE204610BD82B070B583
:1032F000046A86B00AA981E80C003CB3236963B173
:1033000001221C461B690132002BFAD1092A04DD77
:1033100006B0BDE8704002B070470AAB0FCB02ADFB
:1033200085E80F0018200DF0BDFE06AB064613E938
:1033300003008DE80300304695E80C0001F0EAF93F
:10334000266106B0BDE8704002B0704705460FC95F
:1033500002AC84E80F0018200DF0A4FE06AB064670
:1033600013E903008DE80300304694E80C0001F0F7
:10337000D1F92E6206B0BDE8704002B0704700BFC0
:1033800000B583B0019004F0E9FC01990148FFF712
:10339000A1FAFEE7E4200108C388DB0600D47047E9
:1033A00010B5044684B0818801230422684601F0E8
:1033B0008DF9E38823F01003E38004B010BD00BF53
:1033C0000EB42DE9F04787B00FAB044653F8046BF9
:1033D0000093317839B92AE0236820469B6A013688
:1033E0009847317819B32529F6D1009A7378176870
:1033F000101D252B009006F1020659D0583BDAB279
:10340000202A19D8202B17D8DFE803F057161616F4
:10341000161616161616164C3316161616161616F9
:103420001616161616161626161616168A0007B043
:10343000BDE8F04703B0704723683F219B6A2046F0
:10344000984723683F219B6A2046984723683F217D
:103450009B6A20469847C4E717F8011B0029C0D093
:10346000236820469B6A9847397801370029F7D1AD
:10347000B7E7002301A93846CDE90133CDE903338D
:10348000059301F07BFA9DF804100029A9D00DF1F5
:103490000505236820469B6A984715F8011B0029FB
:1034A000F7D19EE72368F9B29B6A2046984798E7D0
:1034B000236820469B6A984793E74FF000094FF036
:1034C0001C0A08254FF0000812E0B9F1000F2AD0BD
:1034D00003F1570C236861469B6A20464FF00108B0
:1034E0009847013D15F0FF05AAF1040A3FF479AFB2
:1034F00027FA0AF303F00F0303F13002392A5FFAC7
:1035000082FCE2DC302A4FF030012046E2D1B8F1F3
:10351000000F01D1012DE4D123689B6A9847E0E7B1
:103520004FF00109CBE703F1370CD3E70A4600213E
:103530000EF004B80368B3F902007047C3881B0794
:1035400019D530B5838D416A02689BB20446C95CC7
:10355000926A85B09047A58D94F82830628DADB2FF
:103560000135B5FBF3F103FB1155ADB2AA4203D00F
:10357000A58505B030BD7047022240F2FF3101231E
:10358000684601F0A3F823680121DB6920469847CB
:10359000A58505B030BD00BFC38843F00103C380DB
:1035A000704700BFC38843F00203C380704700BF69
:1035B000C38823F00103C380704700BFC38823F092
:1035C0000203C380704700BFC3885A0770B5044622
:1035D00007D503680021DB699847A069FFF734FE2F
:1035E000E388207F23F004039DB2E580FFF7FEFD12
:1035F000A06160B12368002645F004059B69E6835D
:103600002684E580314620469847304670BD6FF4E9
:103610007B7070BD38B5C3881A07044607D50368A8
:103620000121DB699847606AFFF70EFEE38894F892
:10363000280023F008039DB2E580FFF7D7FD606204
:1036400030B1002045F008056085A085E58038BDD3
:103650006FF47B7038BD00BF10B5BDF80800BDF831
:103660000C40A0420DD003F1FF3C431CB3FBF2FE23
:1036700002FB1E3311F800E00CF801EF98B284420F
:10368000F3D110BD2DE9F8430446174688469DF84E
:103690002060BDF824901D46FEF738FC0F4B2360D8
:1036A000C4E9028704F1100001F0E4F8E388A4F80B
:1036B00004900135013643F480430022E3802577EE
:1036C0004FF0FF3384F82860E283A26162622284B3
:1036D0006285A28563612046BDE8F8830421010864
:1036E000012A20D0022A38B504460D460AD0C38BE1
:1036F000027F11FA83F191FBF2F302FB1311416196
:10370000002038BD11468088FFF7B2FAE18B237F95
:1037100015FA81F191FBF3F503FB15116161FFF7D8
:1037200073FB002038BD6FF47A707047012A0FD008
:1037300038B514460546103001F0A0F8022C01D02F
:10374000002038BDA8880121FFF70EFC002038BDFD
:103750006FF47A70704700BFC3885B0710B50446EA
:1037600006D5E38B208C9BB2C01A18BF012010BD78
:10377000FFF72AFF0028F4D010BD00BF38B504467B
:10378000F1B101290D460FD12046FFF7E5FF0028D2
:10379000FAD0238CA169227FC85C0133B3FBF2F11C
:1037A00002FB1133238438BD0229F2D1FFF7D4FF85
:1037B0000028EED12A4601212046FFF791FFE8E7D5
:1037C000FFF7CAFF0028E4D1004838BD0CFCFFFF1A
:1037D000838D408D9BB2013BC01A18BF01207047FA
:1037E000828D438D92B29A4206D990F82810828D2C
:1037F0000B4490B2181A7047808D80B2181A704727
:103800002DE9F843161E044643DD458D1F4601F1A0
:10381000FF394FF0000808E0626A19F8011FD1541F
:1038200008F101084645658524D094F82830A08D1C
:10383000691CB1FBF3F203FB121180B22B468DB26F
:10384000A842E9D1236801219B6920469847022FAD
:1038500018D0012F02D067B1638DDDE72046FFF756
:10386000BFFF0028F8DD2046FFF7BAFF0028F5DC8F
:10387000F2E74646236801219B6920469847304677
:10388000BDE8F883394640F2FF30FFF76DFB638DEA
:10389000C2E70026EEE700BFC08800F001007047D5
:1038A00038B50446FFF7F8FFB8B92046FFF774FEB5
:1038B000E3885B070D4609D529462046FFF75EFFE2
:1038C00002462046FFF774FE104638BDFFF77CFE27
:1038D00002460028F0D0104638BD014AF4E700BF88
:1038E0000DFCFFFF2DE9F04F87B002AF824608467E
:1038F0003B60FFF7D1FF002840F09180CB88154650
:103900005A07894674D54846FFF746FEB9F81E6047
:10391000B9F820407C60B6B2B44277D02846FFF7B1
:1039200009FE26460246D9F818104FF0000B11F890
:1039300006804FF0FF340BE000F0B0FF024628464F
:10394000424508BF3446FFF7F5FD0BF1010B024677
:103950005A450FFA8BF12846EEDC99F81C10B9F89D
:103960001E3001369BB296FBF1F001FB1066B342AC
:103970005DD0631CD7D0002C4EDB7B689C426E462A
:1039800080F28A8099F81C50ED1A254405F108034D
:1039900023F00703ADEB030D0DF10808691C404649
:1039A000A4B2FFF7C3FD99F81C20D9F818100194B0
:1039B0007B68009348464346FFF74EFEB9F8203037
:1039C00099F81C0001332B4493FBF0F400FB1433F3
:1039D000A9F820304846FFF7EBFD41462AB2504691
:1039E00000F024FF5046B5461437BD46BDE8F08FC1
:1039F0000846FFF7E9FD002885D00146504600F053
:103A0000EBFE50461437BD46BDE8F08F3B68012BF6
:103A100012D03B68022B49D04846FFF7C9FD5046FB
:103A200000F028FF50461437BD46BDE8F08F3B68D4
:103A3000012B34D1601C9ED12846FFF77BFD024646
:103A4000B9F81E309BB2B342FAD0D9F818104FF033
:103A5000000B11F806804FF0FF340BE000F01EFF62
:103A600002462846424508BF3446FFF763FD0BF186
:103A7000010B02465A450FFA8BF12846EEDC99F805
:103A80001C30013696FBF3F103FB1166611CD7D0A5
:103A9000002CBFF672AFBFE77B68E51A76E73B689C
:103AA000022B7FF468AF631C7FF465AF294607F1F2
:103AB0000C0000F0D5FE022207F10C014846FFF78A
:103AC00035FE07F10C0000F039FEB9F81E309BB24C
:103AD0005C1E13B999F81C40013C07F10C0000F082
:103AE000C9FE07F10C0109F1100000F0C7FE07F153
:103AF0000C0000F023FE3EE7C08800F00200704793
:103B00002DE9F0410446FFF7F7FF18BB002A1646DF
:103B10001DDD0F46D9B120469846FFF743FDE388E7
:103B20001B070CD54346324639462046FFF768FE50
:103B300005462046FFF742FD2846BDE8F081FFF725
:103B400069FD05460028EDD02846BDE8F0816FF4F8
:103B50007A75F1E7004DEFE70DFCFFFF00B583B08C
:103B60008C4613460DF1070101228DF807C0FFF7BF
:103B7000C7FF03B05DF804FB10B5054B044640F8E1
:103B8000103B00F0DBFD2046FEF702F8204610BD9A
:103B90000421010808B580680368DB6A98470020A3
:103BA00008BD00BF08B5806803685B6A98470020BD
:103BB00008BD00BF0A4600210DF0C0BC9DED007B92
:103BC000C0E90423BDF80820BDF80C30028080ED68
:103BD000027B4380704700BF8842B8BF08467047E9
:103BE000F0B5054683B014461F4604F0B7F8AE683A
:103BF000697B336801915A6C9D6B304690470A2C63
:103C000077F1000338BF0A24021901993046A8470A
:103C100003B0BDE8F04004F093B800BF10B4C46A2C
:103C2000002C0DDD436A002201E0A24208D0198871
:103C30001846013218330029F7D15DF8044B70475C
:103C400000205DF8044B7047826A00238A420B8093
:103C500008BF8362704700BF70B5044604F07EF869
:103C6000A06803685B6C9847A388A269E16980B289
:103C7000C31A9BB2D218A261E288A08013449BB2FF
:103C800041F10001B3F57A7FE161E38013D3D4E918
:103C90000421013241F10001A3F57A73501C9BB25B
:103CA0000D4641F10001B3F57A7F16460246F3D284
:103CB000C4E90465E380BDE8704004F041B800BF8A
:103CC00010B50446FFF7C8FFD4E9040110BD00BFDA
:103CD00010B50446FFF7C0FFD4E9060110BD00BFD0
:103CE0002DE9F04784B0054616461F46FFF796FFBC
:103CF000BDF83090BDF834A09DF8388068B3044614
:103D00002846FFF7E5FF821947EB0103B8F1000FE2
:103D100020D140464146CDE90001CDE9029A204636
:103D2000FFF74CFF04F01AF8AB6A3BB1D3E9040388
:103D300021696269814272EB030305D2AC623246AB
:103D40003B462846FFF74CFF03F0FAFF002004B083
:103D5000BDE8F08730463946DDE76FF47B70F6E763
:103D600010B584B00124BDF818100091BDF81C10E6
:103D7000CDE90114FFF7B4FF04B010BD2DE9F04107
:103D8000C66A436A00218E42816222DD05460A46E8
:103D90001C8801325CB141B11F695C694869BC464D
:103DA0000F69BC4574EB000001D2AB621946B24208
:103DB00003F11803ECD161B1AB6908690A21C01A9B
:103DC000FFF70AFF0246C3172846BDE8F041FFF798
:103DD00007BFBDE8F08100BF2DE9F04F07468BB06B
:103DE00069B18468017B236805919D6B5B6C2046FB
:103DF0009847254A059903461A442046A84738465D
:103E0000FFF72AFFFA6A4FF00108002A7C6A2BDDCF
:103E10000025A9462688FEB12369D7F818C0616934
:103E2000F8699C4570EB010E16D3D4E902EA5EEA0C
:103E30000A0B62881ED013EB0E0341EB0A01C4E9A2
:103E40000431CDE900C0CDF80880314606A800F065
:103E50004FFCFA6A09F101090135AA4204F118047C
:103E6000D8DCB9F1000FD0D138460BB0BDE8F04F27
:103E7000FFF784BF384621460592FFF7E5FED7E9F4
:103E800006C0059ADDE700BF80969800084B1B68C6
:103E900001465BB1187B014111F0010103D0012102
:103EA0001846FFF799BF1846FFF796BF704700BF47
:103EB00004160020704700BF034B186808B1FFF7D5
:103EC000FFBE00200021704704160020034B186835
:103ED00008B1FFF7FDBE0020002170470416002046
:103EE00010B5074C246882B044B1CDE900230246E6
:103EF0000B462046FFF734FF02B010BD0148FBE738
:103F00000416002016FCFFFF38B50C4D286898B148
:103F1000FFF7DEFE0A4A044642F210709047286816
:103F2000FFF7D6FE0749421F131B002042F2107212
:103F3000B2FBF3F30B6038BD034838BD0416002014
:103F4000050000200016002016FCFFFF70B5154686
:103F5000184A02604373184A81600A230446C36208
:103F60000573F0201460FFF741F9F0216062FFF75C
:103F700021FEA068114900220023C4E90423C4E9FA
:103F80000623036800269B69A6629847A0680C4A2E
:103F9000036829469B6B9847A06803681B6A98478B
:103FA000A068E68003685B6C9847A080FFF7ACFFD1
:103FB000204670BD44210108041600208D3E0008F3
:103FC0008096980082B08DE80C00014802B07047DE
:103FD00016FCFFFF0048704716FCFFFF00487047C3
:103FE00016FCFFFF0029806905DD08B904E010B167
:103FF0000139406AFBD17047704700BF82B010B5ED
:104000008E4684B049688446DEF800000DF1080E43
:10401000AEE8030006A981E80C00039BDA0714D57B
:104020005910029A5CF801108C580CEB630C08AB29
:1040300093E803008DE8030006AB0CCB6046A04775
:1040400004B0BDE8104002B07047029C0CEB630C5A
:10405000EDE700BF2DE9F04183885F0782B0064697
:1040600003D59D062FD4DC063AD443F00403B38075
:1040700006F1100506F1180817E0F468B76895E82E
:104080000F000094B847B388DA0619D5346ABCB17A
:1040900094E80F00276985E80F0018212046376251
:1040A0000CF0FEFFFEF7B0FEB38898070ED4D907D8
:1040B000E3D495E80F00B468A047B388DA06E5D4E6
:1040C00023F00403B38002B0BDE8F08198E8030058
:1040D00095E80C008DE80300B06800F083FCD2E79F
:1040E00000F1180393E8030006F110030CCB8DE8F0
:1040F00003003046FFF7FAF8E5E700BF002943D098
:104100002DE9F04184690646002C3AD0DFF8808022
:104110000D46002705E0A268AB689A420DD0646A9C
:10412000F4B1AA88A38853409907F8D49207F2D52E
:10413000A968A06800F072FCC0B12B8813B1228876
:104140009A42ECD16B88ABB9B3680BB12046984763
:10415000A38843EA0803A380646A0137002CE0D1F6
:10416000002FC8BF20460CDDBDE8F081AB889B075F
:10417000D5D4D0E762889A42D1D1B368002BE5D17B
:10418000E6E76FF47A70EFE76FF47A70704700BF7C
:104190000080FFFF002975D0F0B5846985B007461F
:1041A0000D464CB966E0A3889B0708D52A682368AA
:1041B0009A4217D0646A04B3AB889A07F3D4226892
:1041C0002B689A42F6D1A268AB689A42F2D1EA68AB
:1041D000E3689A42EED1B4F90420A388002A4CDBAC
:1041E0002A4827E0A968A06800F018FC0028E1D060
:1041F000EA68E3689A42DDD1EDE7D7F818C0BCF170
:10420000000F37D02A886046634600E00B461988C5
:10421000914211D2596A18460029F7D163451CD042
:10422000596A69625D62012340F2FD31684600F01F
:104230004DFA002005B0F0BD1C46034609E0608839
:1042400069888842EAD2666A2346002EE6D0318821
:1042500034468A42F3D06345E2D119888A4203D2B8
:10426000C5F824C0BD61DEE7DAD158886988884284
:10427000D6D9F5E72A88BD61D5E7C3F30E03034815
:10428000A380D7E76FF47A70704700BF16FCFFFF7A
:104290000A4600210DF052B90249016000228260F5
:1042A000704700BF5421010838B5044603F056FD9D
:1042B000E5692DB12B69E36133B1E38C013BE38404
:1042C00003F03EFD284638BD2362F6E72DE9F041B4
:1042D000846924B3002607463546B4F90430A28821
:1042E000002B06DB2546646A002CF6D13046BDE87B
:1042F000F0815307F6D4D4F824806DB1C5F824803A
:104300002046FEF7E7FF2046282144460CF0C8FE71
:104310000136002CE1D1E9E7C7F81880F0E726461E
:104320003046BDE8F08100BF2DE9F0418469002CE2
:1043300046D0DFF894800D46164601270CE0A3888E
:1043400003F0C003A3F1C003B3FA83F35B09B342E4
:1043500015D00027646A3CB323882988994201D08C
:10436000002BF7D163886A889A4201D0002BF1D1E3
:10437000FEF71CFC0028E2D10123B342E9D1B4F9D5
:104380000430B4F804E0002BE3DB95E80F0004F1FF
:10439000100C1EF0400F8CE80F0008D02046FFF7ED
:1043A00059FE646A002CD7D13846BDE8F081FEF78B
:1043B000FDFB0028F2D021464046FEF74DFEC9E73E
:1043C00001273846BDE8F08155400008F0B50122CC
:1043D00087B0076A04460D46FFF7A6FF10B9E38CC5
:1043E000092B01D907B0F0BD95E80F0002AE86E8B1
:1043F0000F0018200CF056FE06AB054613E903002B
:104400008DE80300284696E80C0000F083F903F0DD
:10441000A5FC67B13B692B613D612B695BB1E38C06
:104420000133E38407B0BDE8F04003F089BCE369E1
:104430002B61E561F2E72562F1E700BF82B008B5C4
:1044400002A9C1E90023FFF7C1FFBDE80840002031
:1044500002B0704782B038B5054604A981E80C0067
:10446000FFF734FF2846FFF71FFFA0B1044603E023
:10447000FFF71AFF044670B1002221462846FFF7D5
:1044800053FF182120460CF00BFEFEF791FC03466B
:104490002846002BECD1BDE8384002B0704700BF81
:1044A00070B505462E46084646F8040B82B06C46A9
:1044B0003046102184E80C00FFF7EAFE234603CBC8
:1044C000034B6860284671606B6102B070BD00BF2D
:1044D000FD3F0008F0B5044683B00F461646103085
:1044E0000193BDF8285000F0D1F86680278018208D
:1044F0000CF0D8FD08AB0CCB01990646FFF7D0FFB6
:1045000045F0020500232046C4E90263C4E90833EC
:10451000A58003B0F0BD00BF10B58EB08C461099D9
:10452000044699B11021029110A903C98DE8030036
:10453000614604A8FFF7CEFF236804A99B682046C4
:10454000984704A8FEF7C6FE0EB010BD1199C90722
:10455000FAD5E7E710B50E4B0E4984B000220446A9
:10456000CDE9023201F108002831E16004A92060A0
:1045700011E9030023468DE803000F212046FFF7D1
:10458000CBFF04F10C00FDF703FB204604B010BD87
:104590005544000860210108A0F10C00FFF7DABFC4
:1045A00010B50446FFF7D6FF204628210CF078FD11
:1045B000204610BDA0F10C00FFF7F2BF2DE9F0413D
:1045C00084B0BDF83070F3B11C460A9B06460D4618
:1045D0009046DBB10F2D01D1C02F14D128200CF053
:1045E00061FD02970AA9074603C923468DE8030027
:1045F000424629463846FFF76DFF336839465B6807
:104600003046984730B904B0BDE8F0810B9BDB071A
:10461000F9D5DFE73846FEF75DFE2821384604B0BD
:10462000BDE8F0410CF03CBD10B5044686B0FFF784
:1046300033FE04F10C00FDF769FC114A0023CDE9BB
:10464000042306AA12E903000E4A8DE80300226043
:104650002032E260C022C4E906332362E3840F21E2
:104660000292234602222046FFF7A8FF064B1A6853
:1046700012B1204606B010BD20461C6006B010BD29
:1046800055440008682101080816002010B50023D1
:1046900003600446FFF71AFCC4E90201204610BD7E
:1046A00030B5094B1C6883B05CB100F108020346C9
:1046B00092E8030025688DE8030020460CCB2968AA
:1046C000884703B030BD00BF0816002038B5018010
:1046D000428004461D46FFF7F9FBC4E902010DB90B
:1046E000204638BD2046FFF7DBFF204638BD00BF1F
:1046F00010B59DED027B9DF81030018080ED027BAE
:10470000044642800BB9204610BDFFF7C9FF204682
:1047100010BD00BF82B010B502A9044681E80C00AC
:10472000FFF7B4FF02AB0FCB84E80F000023204655
:104730002361BDE8104002B0704700BF10B50446C9
:10474000006800F0E3F8204610BD00BFB0F9020099
:10475000704700BF014B0360704700BFA0210108F4
:1047600030B583B00546501D14460191FEF73EFD5D
:10477000286000F0E7F82868019944802246043058
:104780000CF0B4FE2A6822440023137103B030BD3C
:1047900010B5044629B10160084600F0A5F820468E
:1047A00010BDFFF7D7FF204610BD00BF10B5064C67
:1047B00006492046FFF7ECFF2046054A0549BDE8BB
:1047C00010400CF068BC00BF0C160020A0210108AE
:1047D000000000203D47000810B50B4684B0044699
:1047E00001A9184600F0CAF801A8FCF7C1FB01A90D
:1047F00002462046FFF7B4FF204604B010BD00BFBC
:1048000038B5054611B10B780C4623B92846FFF799
:10481000A1FF284638BD0846FCF7AAFB2146024600
:104820002846FFF79DFF284638BD00BF70B50546F6
:1048300049B10B780C4633B108461646FCF798FB95
:10484000B3B2834204D92846FFF784FF284670BDDF
:10485000284632462146FFF783FF284670BD00BF39
:1048600010B50B6804461846236000F03DF820465A
:1048700010BD00BF08B5FFF76DFF08BD38B50B6868
:1048800004460068984206D00D4600F03FF82868BC
:10489000206000F029F8204638BD00BF00290BDB5E
:1048A00008B503681846FFF751FF884202DD194436
:1048B000087908BD002008BD00207047FFF776BFCB
:1048C00008B503884FF6FF729BB293420AD0012BC2
:1048D00001D0DB0704D41E20FEF752FD002008BDE6
:1048E000002008BD012008BD10B50446FFF7E8FF11
:1048F00000B110BDBFF35B8FD4E85F3F0233C4E863
:10490000523F002AF8D1BFF35B8F10BD10B50446AB
:10491000FFF7D6FF00B110BDBFF35B8FD4E85F3F58
:104920009A1EC4E8512F0029F8D1BFF35B8F9BB2C8
:10493000032BF0D12046BDE8104000F001B800BFC5
:10494000FEF782BC03230380704700BF98B110B507
:104950000446FCF70DFB013823189C4238BF204663
:1049600007D20278197800F8011B03F80129834265
:10497000F7D8002010BD6FF47A70704770B561B33E
:1049800080EAE074164DC4EBE07401F1FF3E4FF095
:10499000000C85FB0423E217C2EBA30202EB8203A7
:1049A000A4EB4303002BB8BF5B42303366460EF8DE
:1049B000013F0CF1010C1446002AEAD1002804DA68
:1049C0002D2301F80C3006F1020C002301F80C3005
:1049D0000846FFF7BBFF204670BD6FF47A74FAE714
:1049E0006766666682B030B583B006A981E80C00C0
:1049F00008AB8646844693E803005EF8045B8DE8C6
:104A0000030006AB0CCBDCF8144071462846A047E7
:104A100003B0BDE8304002B0704700BF08B502687F
:104A20000B689A4201D0002008BD102204310430E6
:104A30000CF04CFDB0FA80F0400908BD10B5002222
:104A400086B0044601AB11464FF6524000F01CF907
:104A500014B19DF8133023709DF8120006B010BDFC
:104A600000B50B4685B080B10090042113B1081D3C
:104A70000193C1B26B464FF654401A4600F004F958
:104A80009DF80E0005B05DF804FB0146EEE700BF9F
:104A900000B5002285B04FF655406B46114600F038
:104AA000F3F89DF80E0005B05DF804FB00B5002298
:104AB00085B04FF65A406B46114600F0E5F89DF878
:104AC0000E0005B05DF804FB00B5024685B06B46EC
:104AD0004FF666400C322E2100F0D6F89DF80E00FD
:104AE00005B05DF804FB00BF204B214ADB6B9B0047
:104AF0009BB203F1005303F5403330B419680B68DF
:104B000093422DD00B694A698D694C68896802729D
:104B10004FEA136C80F800C04FEA134C80F801C0D4
:104B20004FEA132C80F802C0C3F3031C03F00F03F9
:104B30000371130E4371130C8371120A230EC17398
:104B4000C2718372220C0B0E240A090C457280F884
:104B500003C0C27204734373817330BC002070477A
:104B6000D1E90532CD69D1E90341D0E700400058D1
:104B7000B95646A9F0B5124C124D134E0346E361E7
:104B8000D1E9007328463360104B40F8047B236062
:104B900085B00F4B236100F0C5F8336801202873FE
:104BA00003B19847236801226A7333B109490A4A5D
:104BB0000397CDE9011201A8984705B0F0BD00BFE9
:104BC00014160020C802002010160020354F0008DF
:104BD000714F0008194D00084D4C000810B5184CD5
:104BE00084B0201D00F0A2F808B9637B5BB91548BA
:104BF00000F09CF808B9637B0BB904B010BDFFF757
:104C0000EDFF04B010BD01A9201D00F0B3F80E4B5C
:104C1000DB697BB10199039101228DF8082002A87C
:104C200098479DF80830637333B90199201D00F04F
:104C300089F8DCE701236373019800F01BFAD6E7DB
:104C4000C8020020CC0200201416002008B501463E
:104C5000034800F083F8BDE80840FFF7BFBF00BF7E
:104C6000CC02002070B5054600F02AFA054E044635
:104C700001E0337823B100F023FA031BAB42F8D3F1
:104C800070BD00BF561800202DE9F041DFF8788094
:104C90001E46D8F800300D4682B0074611461BB1BB
:104CA0000020019298470199144C20682A46C57249
:104CB000A0F8097000250C3025730CF017FC104B80
:104CC000104A1B692946284601251570984748F265
:104CD000E800FFF7C7FF21688A7806F10800033271
:104CE0000CF004FCD8F80030257323B1284602B03C
:104CF000BDE8F041184702B0BDE8F081C8020020CD
:104D0000141600205618002010160020014B002217
:104D10001A7070475618002008B50020FFF7F6FFFC
:104D200008BD00BF00604060704700BFEFF3108314
:104D300072B60268801AB0FA80F0400983F31088D6
:104D4000704700BFEFF3108372B602680A604860D4
:104D500001600A68516083F310887047EFF3108395
:104D600072B6086042684A6041604A68116083F325
:104D700010887047EFF3108C72B603680B600368FD
:104D8000EFF3108172B65A68186810601B685A6099
:104D900081F310888CF31088704700BF30B50A4C3F
:104DA0000A4D83B006E0FFF7E5FF2B69019918690A
:104DB000FFF7D4FF2046FFF7B9FF034601A92046BD
:104DC000002BF0D003B030BD3C16002000000320C3
:104DD0000CB400B583B004A951F8040B01910BF099
:104DE00057F903B05DF804EB02B0704704F080BCE3
:104DF0000D4B0E4A03F1200003F1300110B4136093
:104E000003F140045060916003F14801146203F122
:104E1000500051625DF8044BD06003F158017433C7
:104E20001161536104F08CBC2800032000000320B2
:104E300038B50C4D04462846FFF774FF0A4BE2686C
:104E40005B68A168DA60094A1960C3E9012504F0CA
:104E500099FCD4E900020649064B08601A6000205C
:104E600038BD00BFA0000320000003200807032076
:104E7000381600203416002008B50A4B5A685B68C3
:104E80001268012111721868C17A19B904F082FC04
:104E9000002008BD044A0C30FFF79AFF04F07AFCAA
:104EA000002008BD000003207422010870B51B4CCF
:104EB0001B4E1C4D82B005E0FF2B817A1CD021BB1C
:104EC0002B6898472046FFF731FF20BB204601A9F9
:104ED000FFF750FF0198437AA3F10E02012AEBD8A5
:104EE0000E2BEDD1817A0429EAD00F3004393246F5
:104EF000FFF76EFF0198E3E70229E1D00D30023998
:104F00003246FFF765FF0198DAE70B303246FFF7CC
:104F10005FFF0198D4E702B070BD00BFA00003207E
:104F20007422010838160020014B1B68184700BF87
:104F30003416002038B50A4D04462846FFF7F2FE25
:104F4000084BA268DB68C3E9002504F02BFCD4E918
:104F500000020549054B08601A60002038BD00BFFB
:104F6000A80003200000032044160020481600205B
:104F700008B50A4BDA68DB681268102111721868EC
:104F8000C17A19B904F016FC002008BD044A0C309F
:104F9000FFF71EFF04F00EFC002008BD00000320F8
:104FA0007422010810B50B4CE3681868437A0E2B85
:104FB00006D0E268084B10681B68BDE8104018472F
:104FC000817A0429F5D0054A04390F30FFF700FF34
:104FD000EFE700BF00000320441600207422010800
:104FE00070B5114C114E124D82B002E02A6818467D
:104FF00090472046FFF79AFE034601A9204683B951
:10500000FFF7B8FE019B5A7AFF2AEFD1997A02295D
:1050100003F10D00EAD032460239FFF7D9FE019BB9
:10502000E4E702B070BD00BFA800032074220108AD
:105030004816002038B50C4D04462846FFF772FE8E
:105040000A48FFF76FFE0A4BA168E2681B69C3E9D3
:105050000212D4E900201A60D4E904121D61C3E9E8
:105060000512586038BD00BFB00003203C16002078
:105070000000032008B501460348FFF76FFEBDE8B6
:105080000840024804F0D6BB3C1600209D4D0008A5
:10509000704700BF10B5094C82B004E0FFF76AFE0C
:1050A0000198FFF7F5FF2046FFF740FE034601A9F0
:1050B0002046002BF2D002B010BD00BFB800032084
:1050C00007F04AB90C48854600F026F80B480C4911
:1050D0000C4A00230BF0D5FF0B480C4900230BF0C2
:1050E000D6FF0B480B4900230BF0D1FF0AF088FBD9
:1050F000FCF7B4FDFEE700000000022000000020E5
:10510000C8020020C4300108D80200205C1800202A
:1051100008070320440B03201449D1F888204FF0DE
:10512000B04342F47002C1F888201968104A4FF465
:10513000E02041F001011960986018680D490240B3
:105140001A60D3F8942022F00502C3F89420D3F813
:10515000982022F00102C3F89820D96019611A68DA
:10516000002122F480221A609961704700ED00E06E
:10517000FBFEF6FA0010042208B5043008F024F90A
:10518000002008BD704700BF20207047704700BF57
:1051900094460A1A00D1704761460CF0CFB900BF9F
:1051A000FFF7F6BF10B5044621B10C441278214632
:1051B000FFF7F6FF204610BD10B50C1A002C134661
:1051C00005DD0146224618460CF09EF903461819E3
:1051D00010BD00BF6FF00040704700BFFFF7FABF7F
:1051E000036819440160704708B50346FFF7F2FFF2
:1051F000984204D31846BDE808400BF053BF0CF0AA
:10520000FEF800BFFFF7EABF081A7047FFF7ECBFD0
:105210000BF046BF08B1FFF7F9BF7047FFF7F8BFC3
:10522000704700BF08B1FFF7F9BF7047081A704711
:10523000704700BF704700BF03680A689A4238BFD2
:105240000846704700B583B06FF000430093FFF746
:10525000D9FF01A9034668460193FFF7EDFF0068F7
:1052600003B05DF804FB00BF10B50446FFF7EAFF8A
:10527000A04201D3204610BD01480CF0C6F800BF83
:105280004422010819B14FF42A4343637047AA230B
:105290004363704702680B689A4238BF08467047FC
:1052A0000068FFF7BDBF00BF2DE9F04F90F8A430B4
:1052B00085B00191002B4ED000F1040A04465046FF
:1052C00008F068F8D4E92601FFF7B0FF0346FFF7BE
:1052D0005BFFB3FBF0F909FB00F2934288BF09F1D1
:1052E0000109074604F1980BB9F1000F39D00025E8
:1052F00009F1FF3200922E46184616E02046FFF7CD
:10530000C1FF5846FFF7CCFF94F8941042191FFADA
:1053100088F3504601363D4408F0C6F878BBB145E5
:105320001FD0D4E92601FFF781FF401BCDE902071A
:1053300003A902A8FFF780FF009BD0F800809E42DF
:105340004FF00001DAD1019B002BD7D0012120467C
:10535000FFF798FFD5E74FF00408404605B0BDE8D9
:10536000F08F4FF00008504608F01EF8002340462A
:1053700084F8A430A4F8943005B0BDE8F08F8046DE
:10538000F1E700BF0022C0E900228260704700BF41
:1053900010B50446FFF7F6FF204610BD10B50446D1
:1053A000FFF7F6FF204610BD10B50446FFF7F6FFE5
:1053B000204610BDF8B504460E46154600270AF0F3
:1053C0009BF9094B2360A4F8947004F19800FFF74F
:1053D000EBFF318A2A8A84F8A4700123A4F8923062
:1053E000C4E916122046F8BDB422010843688B4276
:1053F00018BF4160704700BF08B50168FFF7F6FFAE
:1054000008BD00BF08B590F8A43003B108BD012362
:1054100080F8A430A0F894109830FFF7EDFF08BD95
:105420000B680360704700BF00B583B0011D01A881
:10543000FFF7F6FF019803B05DF804FB00B583B0F9
:105440004318694601A80093FFF7EAFF019803B0EB
:105450005DF804FB704700BF10B504460846FFF72F
:10546000F9FF034620461B68236010BD00B583B0DA
:10547000014601A8FFF7D4FF019803B05DF804FBD3
:10548000704700BF10B504460846FFF7F9FF034612
:105490002046FFF7CDFE1B78037010BD10B5044603
:1054A0000846FFF7EDFF01462046BDE81040FFF734
:1054B000E9BF00BF38B50D46FFF7CCFF04462846CC
:1054C000FFF7C8FF22680068101A38BD0B68036038
:1054D000704700BF00B583B0014601A8FFF7F6FF93
:1054E000019803B05DF804FB704700BF38B50D4666
:1054F000FFF7FAFF04462846FFF7F6FF2268006828
:10550000101A38BDFFF780BE10B50446FFF73AFF0A
:10551000204610BD38B5054608460C46FFF77AFE12
:105520000444C5E90000AC6038BD00BF38B504468E
:105530000D461146FFF7E8FF20462946FFF7EAFF30
:10554000204638BDFFF74CBEFFF77CBE70B584B077
:10555000064601911546FFF7F7FF0346D6E900011D
:10556000FFF764FE019A1B1A934213D3044601A964
:1055700003A80394FFF78EFE05686519304606D22E
:10558000FFF7E2FFA84228BF284604B070BDFFF72E
:10559000DBFFFAE728460BF038FF00BF704700BF7B
:1055A000704700BF70B582B00E461546FFF7F8FF92
:1055B00004463046FFF7F4FF01902846FFF7F0FF5E
:1055C00001990246204602B0BDE87040FFF7F4BDE5
:1055D000FFF7E8BFFFF7FCBF2DE9F04784B0924624
:1055E00001911F4A01210446FFF7B0FF05462046FE
:1055F000D4F80080D4F80490FFF738FF03A9039093
:1056000001A8FFF757FF07462846FFF703FE0646A7
:1056100007445046FFF734FF01463846FFF73EFF88
:1056200001A8FFF717FF324601684046FFF7D2FF97
:10563000421C01A80092FFF70DFF009A006849463E
:10564000FFF7C8FFA1680746A1EB08014046FFF736
:10565000E9FD3544C4E90067A56004B0BDE8F08702
:105660007822010838B5D0E901329342044606D0C9
:105670001846FFF713FF63680133636038BD0D46BA
:10568000FFF7D2FE2A4601462046FFF7A5FF38BDA8
:1056900000B590F8A43083B08DF8071023B10DF158
:1056A00007019830FFF7DEFF002003B05DF804FB30
:1056B000704700BF10B582B0044601A80191FFF702
:1056C000F7FF034620461B68236002B010BD00BFF1
:1056D00000B585B0019001A8FFF7EAFF034603A8D3
:1056E0001968FFF7E7FF039805B05DF804FB00BFFA
:1056F00000B583B0014601A8FFF7DCFF019803B0B5
:105700005DF804FB00B583B0019001A8FFF7A2FE8D
:10571000006803B05DF804FB38B504460D46FFF79A
:10572000F1FF291A2046BDE83840FFF787BE00BFC9
:1057300010B582B0044608460192FFF77BFD019A3E
:105740000146204602B0BDE81040FFF72BBD00BF68
:1057500000B583B000230DF107028DF80730FFF785
:10576000E7FF03B05DF804FB08B5FFF7F1FF08BDE4
:1057700008B5FFF7F9FF08BD10B504460068FFF74C
:10578000F7FF606010BD00BF30B583B00446084627
:105790000D460192FFF768FD019A01462046FFF78A
:1057A000C5FE20462946FFF7E7FF204603B030BD7F
:1057B0002DE9F04383B00F1D9DF828900E469046CA
:1057C000194601AA1D460446FFF7DEFF384607F0DA
:1057D000E1FD49463046FFF755FD2046FFF760FDE5
:1057E000ABB202464146384607F002FE384607F0A3
:1057F000DBFD204603B0BDE8F08300BF30B587B0C5
:105800000D4601469DF8280080F0010014460090E6
:10581000EAB203A81D46FFF7CBFF03A8FFF740FD40
:105820002A46014620460BF061FE03A8FCF7F6FA73
:10583000002007B030BD00BF08B513460A1A01D1D9
:10584000184608BD9B1A014618460BF05DFE03463C
:10585000184608BD08B5FFF7EFFF08BD08B5FFF70C
:10586000F9FF08BD70B582B00E461546FFF798FEE9
:1058700004463046FFF794FE01902846FFF790FE5D
:10588000019902462046FFF7E9FF02B070BD00BF54
:1058900030B583B00D460192FFF780FE04462846DE
:1058A000FFF77CFE019A0146204603B0BDE8304078
:1058B000FFF7D8BF10B50C1A134601D1181910BD47
:1058C0000146224618460BF01FFE0346181910BD6C
:1058D00008B5FFF7EFFF08BD08B5FFF7F9FF08BDF2
:1058E00070B582B014460E46FFF75AFE05463046A4
:1058F000FFF756FE01902046FFF704FF019902468C
:105900002846FFF7E9FF01462046FFF705FF02B0F2
:1059100070BD00BF30B583B00D460192FFF73EFE6B
:1059200004462846FFF73AFE019A01462046FFF753
:10593000D7FF03B030BD00BF70B582B00E4615462C
:10594000FFF72EFE04463046FFF72AFE0190284658
:10595000FFF726FE019902462046FFF7BDFF02B081
:10596000BDE87040FFF70EBC30B583B00D46019224
:10597000FFF714FE04462846FFF710FE019A014681
:105980002046FFF7D9FF03B030BD00BF08B5FFF7D1
:10599000EBFF08BD08B5FFF7F9FF08BD08B5FFF735
:1059A000F9FF08BD08B5FFF7F1FBFFF7F7FD08BDEC
:1059B00010B50C1A134601D1181910BD0146224624
:1059C00018460BF0A1FD0346181910BD08B5FFF7E6
:1059D000EFFF08BD08B5FFF7F9FF08BD70B582B04D
:1059E0000E461546FFF7DCFD04463046FFF7D8FDAE
:1059F00001902846FFF7D4FD019902462046FFF7A3
:105A0000E9FF02B0BDE87040FFF7BCBB30B583B022
:105A10000D460192FFF7C6FF04462846FFF7C2FF76
:105A2000019A01462046FFF7D9FF03B030BD00BF01
:105A300008B5FFF7EBFF08BD08B5FFF7F9FF08BD94
:105A400008B5FFF7F9FF08BD30B583B00D460192E8
:105A5000FFF74EFE04462846FFF74AFE019A01462C
:105A6000204603B0BDE83040FFF7EABF30B583B051
:105A70000D460192FFF72CFE04462846FFF728FE4C
:105A8000019A0146204603B0BDE83040FFF7D8BF79
:105A90002DE9F04385B09A42019130D00446194671
:105AA000104615461E46FFF72DFDA36862689B1A37
:105AB0009842074626D82046FFF7B6FC01A9039076
:105AC00003A8FFF7F7FC8742D4F80490804647D23A
:105AD000A9EB07084A4649464046FFF7C7FF6368F7
